:0300000002070AEA
:0C070A00787FE4F6D8FD758107020751E6
:100BA200543A00483A004D41583A004D494E3A00F5
:100A5A0044000800000000440004000000004200B6
:100A6A000C0000420010006342000E001442000213
:070A7A000000420000000033
:10046E00120BC17FE87E03120B67120966120B7C1A
:10047E007BFF7A0B79A27D017F01120A037BFF7A43
:10048E000B79A57D017F02120A037BFF7A0B79A8F7
:10049E007D0A7F01120A037BFF7A0B79AD7D0A7FFD
:1004AE0002120A0312063412079690000CE4F0A30F
:1004BE00EFF0900002E07002A3E0707690000CE086
:1004CE00FEA3E0FF64014E60DBEF64024E60D5EFE9
:1004DE0064034E7009900002F0A304F080C6EF642E
:1004EE00044E70C0FC900011E0FDE4FF1209D37FB2
:1004FE00057E00120B67900010E0FD7C007F01125C
:10050E0009D37F057E00120B677C0090000FE0FD83
:10051E007F021209D37F057E00120B6790000EE05A
:10052E00FD7C007F031209D37F057E00120B67024C
:10053E0004B2900002E0FEA3E0FF64014E600302ED
:10054E0004B290000CE0FCA3E0FD64014C703EEFA1
:10055E0064014E7038900000E0FEA3E0FF4E701173
:10056E00900011E004F07022900010E004F00204FC
:10057E00B2EFF47002EEF460030204B290000FE0EA
:10058E0004F0700690000EE004F00204B2ED640276
:10059E004C703F900002E07004A3E0640170339051
:1005AE000000E0FEA3E0FF4E700C900011E024FF6F
:1005BE00F09000108015EFF47002EEF46003020468
:1005CE00B290000FE024FFF090000EE034FFF00236
:1005DE0004B290000CE07004A3E064037015900068
:1005EE0002E07004A3E064017009900002F0A3F031
:1005FE000204B290000CE07004A3E06404600302F5
:10060E0004B2900002E07004A3E0640160030204EF
:10061E00B2900000E0FEA3E0F4FFEEF4900000F0D4
:06062E00A3EFF00204B28C
:10096600E4FF12092A900010E4F0A3EFF07F0112D1
:10097600092AEFFE900010E04EF0A3E0F07F02128D
:10098600092A90000EE4F0A3EFF07F0312092AEF84
:0B099600FE90000EE04EF0A3E0F02207
:10063400120BC11209A1900008120462E4FFFEFD2E
:10064400FC900008E0F8A3E0F9A3E0FAA3E0FB12B1
:1006540001A950227B2D7D037F01120BF790000826
:10066400E0FCA3E0FDA3E0FEA3E0FF120222900061
:100674000812046280097B2B7D037F01120BF79023
:100684000008E0FCA3E0FDA3E0FEA3E0FF1202717A
:10069400AB07AA069000167402F07D047F01120ACB
:1006A400FF7B2E7D067F01120BF77F007E407D1CB1
:1006B4007C46900008E0F8A3E0F9A3E0FAA3E0FB8D
:1006C400120003120271E47B107A27F9F81203C2B4
:1006D4009000167403F07D077F01120AFF9000104A
:1006E400E0FAA3E0FB9000167402F07D0F7F011284
:1006F4000AFF90000EE0FAA3E0FB9000167402F0EB
:060704007D0FFF020AFF59
:060BB200C2A58F80D2A74E
:080BB8007F027EEFDEFEDFFC90
:010BC0002212
:0A0BDA00C2A6120BB2C2A7020BB8AC
:100A8200E0FCA3E0FDCFCDCFCECCCE1203317C0073
:090A92007D0A120331ED2430FF4E
:0A0A9B00D2A6120BB2C2A7020BB8DC
:050AE200EAF0A3EBF0B7
:100AE700AE07EEB40104ED148007EEB40209ED245D
:080AF7003F4480FF120BDA22DC
:100B7C007F38120BDA7F0C120BDA7F06120BDA7F3E
:040B8C0001020BDA7D
:080BF700120AE7AF03020A9B9A
:0B0A0300900012EBF0A3EAF0A3E9F072
:100A0E00120AE7E4FD900012E0FBA3E0FAA3E0F97E
:100A1E008D827583001202F2FF6006120A9B0D8012
:010A2E00E4E3
:010A2F0022A4
:0C0810007F0AEA24FFFDE434FFFC7E00B8
:0E081C00900017EEF0A3EFF0A3ECF0A3EDF0C8
:10082A00A3E4F0A304F0E4FBEBFFD390001AE09FEB
:10083A007480F8900019E0648098401E90001BE0D4
:10084A00FEA3E0FF900017E0FCA3E0FD12031F9057
:10085A00001BEEF0A3EFF00B80CE90001BE0FEA38E
:02086A00E0FFAD
:01086C002269
:030AFF0090001450
:100B0200120AE2A3E0FAEAD39400400C1208109011
:080B12000014120A821A80EEA1
:010B1A0022B8
:10086D00120AE7C3EA64809480400F7F2B120A9B23
:10087D00900022EAF0A3EBF080127F2D120A9BC3A9
:10088D00E49BFEE49A900022F0A3CEF0900021E0CC
:10089D00FAEAD39400400C120810900022120A823A
:0308AD001A80EEC0
:0108B0002225
:0308B1009000268E
:1008B400120AE2A3E0FAEAD39400402D7F10120852
:1008C40012900026E0FCA3E0FDCFCDCFCECCCE121B
:1008D4000331EF540FFEC3940AEE50042430800217
:0908E4002437FF120A9B1A80CD93
:0108ED0022E8
:0308EE0090002B4C
:1008F100120AE2A3E0FAEAD39400402CEA24FFFDB5
:10090100E434FFFC7F027E0012081C90002BE0FC07
:10091100A3E0FDCFCDCFCECCCE120331EF540124D5
:0809210030FF120A9B1A80CE80
:0109290022AB
:100B6700EF1FAC0670011E4C600A7D027CEFDCFEB5
:040B7700DDFC80EC35
:010B7B002257
:0D0BC100120B1B7FCC120B357F44020B354D
:1009A100120B1B7FCC120B357FBE120B35120AC402
:1009B100900012EFF0120AC4EFFE900012E0FDED7C
:1009C100FFAC06EC120238E4FBFA7980784112019F
:0109D1000C19
:0109D2002202
:100B1B00D2B7C2B77FF7DFFED2B77F20DFFEA2B717
:090B2B00E433FE7FF7DFFEAF06A4
:010B3400229E
:100B9000C2B77E04DEFEEF24FF92B77E18DEFED2DF
:010BA000B79D
:010BA1002231
:100B4F00C2B77F02DFFED2B77F02DFFEA2B7E43368
:070B5F00FE7F18DFFEAF0668
:010B6600226C
:020B3500AD070A
:100B3700E4FC7401A804088002C333D8FC5DFF12EB
:070B47000B900CECB408EB6D
:010B4E002284
:100AC400E4FDFC120B4FEF600D7401A804088002D2
:0D0AD400C333D8FC4DFD0CECB408E8AF05B1
:010AE10022F2
:10079600E4900012F0D2B0D2B1D2B2D2B320B016E9
:1007A6007F14FE120B673097FD7F147E00120B67D5
:1007B6009000127401F020B1177F147E00120B67AF
:1007C6003096FD7F147E00120B679000127402F0C3
:1007D60020B2177F147E00120B673095FD7F147EC2
:1007E60000120B679000127403F020B3177F147E7B
:1007F60000120B673094FD7F147E00120B67900089
:09080600127404F0900012E0FFEE
:01080F0022C6
:1009D300900012EFF0A3ECF0A3EDF0120BEE7FA06A
:1009E300120A30120BCE900012E0FF120A30120BE3
:1009F300CE900013A3E0FF120A30120BCE020BFFBE
:05092A00900012EFF047
:10092F00120BEE7FA0120A30120BCE900012E0FFD6
:10093F00120A30120BCE120BEE7FA1120A30120BDD
:10094F00CE120AA5900013EFF07F01120BE4120BE9
:06095F00FF900013E0FF11
:01096500226F
:090BEE00D2A0D2A1C2A0C2A12232
:070BFF00C2A0D2A1D2A02286
:020A3000AD0710
:100A3200E4FB74807E00A803088006CEA2E713CEF2
:100A420013D8F8FFEDF582EF558224FF92A0D2A1D0
:070A5200C2A10BEBB408DBAD
:010A5900227A
:100AA500E4FFD2A0FED2A130A00D7480A806088074
:0E0AB50002C313D8FC4FFFC2A10EEEB408E737
:010AC3002210
:0A0BE400EF24FF92A0D2A1C2A122CB
:0B0BCE00D2A0D2A1A2A0E433FFC2A17C
:010BD90022F9
:10000300EC4D6011E8497017ED33EC3304600DE4F7
:10001300FCFFFEFD22E933E8330470F80202DD122F
:1000230002A858046009E4CC248150062850090230
:1000330002E72840030202E4C0E0EB4A7044B980BF
:1000430006D0E0FB0202D3EF4E701CBD8008EBFF2D
:10005300EAFEE9FD80EBE98DF0A4FEE5F00200EC99
:10006300E9CDF9EAFEEBFFEF89F0A4FCE5F0CE89D8
:10007300F0A42EFFE435F0CD89F0A42DFEE435F095
:100083008067EF4E7005BD80D780C3EF8BF0A4ACC3
:10009300F0EE8BF0A42CFCE435F0F8EF8AF0A42CFE
:1000A300E5F038FCE433CB8DF0A42CFCE5F03BF811
:1000B300EE8AF0A42CFCE5F038F8E433CF89F0A401
:1000C3002CFCE5F038CF3400CE89F0A42FFFE5F007
:1000D3003EFEE433C98DF0A42EFEE5F039CD8AF05F
:1000E300A42FFFE5F03EFEE43DFD33D0E0FB5007D7
:1000F3000BBB000F0202E7EC2CFCEF33FFEE33FEE9
:06010300ED33FD0202BF16
:100109000202E7EC5D046005E8590470030202DDB0
:100119001202A8580460F6EC4860F2EC7004FDFE87
:10012900FF22C860DB2481C85009C39860025006C9
:100139000202E49850CAF582E9294B4A7005AB825C
:100149000202D375F0007C1A7880C3EF9BEE9AED1A
:1001590099400DC3EF9BFFEE9AFEED99FDE842F041
:10016900DC23ACF0D0E0FFD0E0FED0E0FDAB822094
:10017900E7101BEB60BAEC2CFCEF33FFEE33FEED1E
:1001890033FD0202BFE803F830E705C0F075F0005F
:10019900EF2FFFEE33FEED33FD40B830E7C280AA02
:1001A90074F8CC6480CCC86480C8F58204604FC3FD
:1001B900EB9FF5F0EA9E42F0E99D42F0E89C45F09C
:1001C900603C501DE5825FFFE582D313CB5BCBF426
:1001D9002B5582FB50280ABA002409B9002008804F
:1001E9001DE5825BFBE582D313CF5FCFF4C3132FE9
:1001F9005582FF50090EBE00050DBD00010CC3EB71
:100209009FF5F0EA9E42F0E99D42F0E89C45F060D6
:0902190007CC4820E701B3EC22F8
:10022200ED33EC33600A047003BD8004ECB2E7FCEA
:0102320022A9
:1002330075F020800E75F010800575F0087D007E46
:10024300007F003392D530D503120454EC334010B1
:10025300EF33FFEE33FEED33FDEC33FCD5F0ED224F
:0E026300E5F0247EA2D513CC92E7CDCEFF228B
:10027100EDD2E7CD33EC3392D524814006E4FFFE85
:10028100FDFC22FCE4CFCECDCC24E0501174FF80E4
:10029100EDC3CC13CCCD13CDCE13CECF13CF047081
:0702A100F030D5DE02045429
:1002A800E9D2E7C933E833F892D5EDD2E7CD33EC9C
:0702B80033FC5002B2D52215
:1002BF00EC30E7100FBF000C0EBE00080DBD0004A0
:1002CF000BEB6014A2D5EB13FCED92E7FD2274FF4C
:1002DF00FCFDFEFF22E480F8A2D574FF13FC7D80A5
:0302EF00E480EFB9
:1007160002046EE493A3F8E493A34003F68001F287
:1007260008DFF48029E493A3F85407240CC8C333E4
:10073600C4540F4420C8834004F456800146F6DFB3
:10074600E4800B0102040810204080900A5AE47EDF
:10075600019360BCA3FF543F30E509541FFEE493A8
:10076600A360010ECF54C025E060A840B8E493A36F
:10077600FAE493A3F8E493A3C8C582C8CAC583CA9A
:10078600F0A3C8C582C8CAC583CADFE9DEE780BE52
:010A81000074
:1002F200BB010CE58229F582E5833AF583E02250C1
:1003020006E92582F8E622BBFE06E92582F8E2220A
:0D031200E58229F582E5833AF583E4932224
:10031F00EF8DF0A4A8F0CF8CF0A428CE8DF0A42EF2
:02032F00FE22AC
:10033100BC000BBE0029EF8DF084FFADF022E4CCB0
:10034100F875F008EF2FFFEE33FEEC33FCEE9DEC79
:10035100984005FCEE9DFE0FD5F0E9E4CEFD22EDBF
:10036100F8F5F0EE8420D21CFEADF075F008EF2F09
:10037100FFED33FD4007985006D5F0F222C398FDFA
:050381000FD5F0EA2297
:1003860075F008758200EF2FFFEE33FECD33CDCC2E
:1003960033CCC58233C5829BED9AEC99E5829840B1
:1003A6000CF582EE9BFEED9AFDEC99FC0FD5F0D68E
:1003B600E4CEFBE4CDFAE4CCF9A88222B800C1B9B8
:1003C6000059BA002DEC8BF084CFCECDFCE5F0CBF6
:1003D600F97818EF2FFFEE33FEED33FDEC33FCEB2F
:1003E60033FB10D703994004EB99FB0FD8E5E4F9EA
:1003F600FA227818EF2FFFEE33FEED33FDEC33FCD7
:10040600C933C910D7059BE99A4007EC9BFCE99ACA
:10041600F90FD8E0E4C9FAE4CCFB2275F010EF2F0F
:10042600FFEE33FEED33FDCC33CCC833C810D7070F
:100436009BEC9AE899400AED9BFDEC9AFCE899F84A
:0E0446000FD5F0DAE4CDFBE4CCFAE4C8F922DD
:0E045400C3E49FFFE49EFEE49DFDE49CFC22B9
:0C046200ECF0A3EDF0A3EEF0A3EFF0220D
:00000001FF
